:020000040000FA
:030000000200C734
:0300330002064181
:03006B0002058704
:03007B000205D5A6
:1000830002083D00000080FBE490010178BE790185
:100093008002F0A3D8FCD9FA7ABE7B019000D6780F
:1000A3006C79018015E493A3AD82AE838A828B833E
:1000B300F0A3AA82AB838D828E83D8E9D9E7120994
:1000C3009512008675D0007581BF751001751101F9
:1000D30002008BFF00000000000000000000004150
:1000E300542B43534D503D31372C3136372C322C62
:1000F30032350D0A0061742B636D67663D310D0A5D
:100103000061742B637363733D2247534D220D0AC1
:100113000061742B636D67733D22313330333733A2
:100123003230303134220D0A00736F730A001A0D16
:100133000A00FFFFFFFF50C30000A0860100E02676
:10014300F608A3E036F608A3E036F608A3E036F691
:1001530022E0FAA3E0FBA3E0FCA3E0FD22CAC0E097
:10016300E6F0A308DAFAD0E0FA22700422600D1850
:10017300C6C333C608C633C6D5E0F4182200C0D0C0
:10018300251010AF08F510500C05118008F510501C
:10019300020511D2AFD0D0222510F58210AF08F599
:1001A30010400C15118008F51040021511D2AF85CF
:1001B3001183222510F582E43511F58322E473259A
:1001C30010C582C0E0E51134FFC583C0E0E510C36C
:1001D300958224F910AF08858311858210800885E4
:1001E3008311858210D2AFCEF0A3E520F0A3780867
:1001F300E608F0A3DEFAEFF0A3E58124FBF8E608B6
:10020300F0A3E608F0A30808E608F0A3E608F0A3C5
:1002130015811581D0E0FED0E0F815811581E8C085
:10022300E0EEC0E022851183851082E0A3FEE0A307
:10023300F5207808E0A3F608DFFAE0A3FFE0A3C007
:10024300E0E0A3C0E0E0A3C0E0E0A3C0E010AF089B
:100253008582108583118008858210858311D2AF32
:10026300D083D08222C0D02510C582C0E0E51134EE
:10027300FFC583C0E0E510C3958224F310AF088562
:1002830083118582108008858311858210D2AFC8BF
:10029300F0A3E9F0A3EAF0A3EBF0A37908E709F0F0
:1002A300A3D8FAECF0A3EDF0A3EEF0A3EFF0A3D004
:1002B300E0F0A3D0E0F0A3D0E0F0A3E520F0A3E5C5
:1002C300F0F0A322851183851082E0C0E0A3E0F95A
:1002D300A3E0FAA3E0FBA37808E0F608A3DFFAE0C3
:1002E300FCA3E0FDA3E0FEA3E0FFA3E0C0E0A3E0E6
:1002F300C0E0A3E0F5D0A3E0F520A3E0A3F5F01060
:10030300AF0885831185821080088583118582104B
:10031300D2AFD082D083D0E0F8D0E0327402800034
:10032300C0E0F40412019BD0E012016022C082C03D
:100333008312081D12068D79017A0A7B011207FBCD
:1003430090010AE0C2E7F06405703D79057A0B7B02
:10035300011207FBA3E0A2E55004D2F08002C2F031
:10036300A2F0E4339001C6F090010FE0A2E740034E
:1003730002041490010DE0F8900101E068600302AB
:100383000414A37401020413E024F59001C3F09054
:10039300010AE0F97A0B7B011207FBA3E0A2E55007
:1003A30004D2F08002C2F0A2F0E4339001C6F090D0
:1003B3000112E0F8A3E0F99001BFE8F0A3E9F0909F
:1003C30001C47414F0A37401F09001C3E0F83395F1
:1003D300E0F9741428F8740139F988828983E0906C
:1003E30001C7F088828983A3E0A2E7501C9001BE75
:1003F300E0F890010DE068601090010BE054DF64B9
:100403004170069001C87401F090010DE09001BEA7
:10041300F012069012082D02081174F81201C28A14
:10042300828B831207D8E9640170047901806E120C
:100433000690A882A983900108E8F0A3E9F090014F
:10044300C4E4F0A3F090010304F0A3E4F0A3F0A349
:10045300F0A3F075F00512086FA3A3A3A3E0A424EF
:10046300D490618FF012086F120630906174F0E936
:10047300A3F090010812063AA3A31206309061720A
:10048300F0E9A3F0E5A8F8C2AF9001B57430F0A38A
:100493007403F0E8A2E792AF12068D79007F0102A0
:1004A3000228E5C65480F853BEFBE59DA2E550FA49
:1004B300E59DA2E240F4007401697007744948F5B0
:1004C300C68005E9700288C6E5C6F8E59E6870FB3C
:1004D30043BE0422E9F8E59EA2E64003790122E83F
:1004E300700553C67F8008740168700343C680E5B6
:1004F300C6F9E59E6970FB790022790112075779E5
:1005030002120757790312075779041207577A32F1
:100513007B001207B180E379001204D7E9601079F8
:10052300011204A579001204D7E960031204FD79CE
:10053300001204A543FE01C29043FE02C29143FE92
:1005430010C29443FD02C28153F3EF53FDEF438F77
:100553001053F5FE53FFFE43F70143F34043F1020B
:1005630043F48043F44043F420E59E75FB8075F823
:1005730000A2E0E433240F4420F5FC75FA5312067D
:10058300DD02068DC0E074F1120268C2C5E5896020
:10059300317E00750801750900EE780812016DAF10
:1005A30008E5895F60151205CA120628600912055D
:1005B300CA1206371201C0EFF452890EEEC3940833
:1005C30040D17F020202C7120620748A28F5827482
:1005D3000122C0E074F1120268C2EBE58A60317E49
:1005E30000750801750900EE780812016DAF08E582
:1005F3008A5F601512061512062860091206151285
:1006030006371201C0EFF4528A0EEEC3940840D1AC
:1006130080B0120620749A28F582740122EE25E038
:10062300F8E433F92239F5831206304922E0F8A3BE
:10063300E0F9E82239F583E0F8A312087222C0E05A
:1006430074F1120268C2E8E58B60317E007508011F
:10065300750900EE780812016DAF08E58B5F601530
:100663001206821206286009120682120637120148
:10067300C0EFF4528B0EEEC3940540D10205C512B0
:10068300062074AA28F582740122D2AF22C2AF22B7
:10069300C292C280C2F989F9A2F950FC000000009D
:1006A300D29222C292D280C2F989F9A2F950FC00F7
:1006B300000000D2922274F81201C2E9FEEAFF742C
:1006C300B04FF9120693EEC4540F4410F912069377
:1006D300740F5EF91206930204A074F81201C25358
:1006E300F3FED28043FD0153F4FBD29243FE045345
:1006F300F37FC28743FD8079AF12069379401206D8
:100703009379A012069379A612069379A4120693FD
:1007130079A212069379C8120693792F1206937958
:10072300F8120693790012069379811206937938A9
:100733001206937F007E00EFFAEEF91206B97900F4
:100743001206A60EEEC3948440ED0FEFC394084047
:10075300E40204A0C082C083E914600B14600D148A
:10076300600F1460118019639001801463900280FC
:100773000F639010800A6380029001B4E06401F07B
:10078300020811EBC313FBEA13FAEAF8EBF9E824C6
:10079300FFFAE934FFFBE8496013000000000000A2
:1007A300000000000000000000000080DD2274F85B
:1007B3001201C2EAFEEBFFEEF8EFF9E824FFFEE9CF
:1007C30034FFFFE84960097AE87B0312078680E774
:1007D3007F01020228C082C083906189E04460F0F7
:1007E3009061FA7409F09061B27415F09061AEE40F
:1007F300F012082D79008016C082C083800DE5D9E0
:100803008A828B83F0A3AA82AB8319E970F0D08329
:10081300D0822275E1EC75E1E322C082C08390614E
:10082300A3E0C2E6F0539AFE80E4C082C0839061E5
:10083300A3E0D2E6F0439A0180D4C0E074F212023E
:1008430068A2AFE433FEC2AFE5E9A2E6501490011B
:10085300B512062B60061208721201C0759B005375
:10086300E9BFEEA2E092AF7F010202C7900109E067
:10087300F58388822274F11201C28A088B098C0ADB
:100883008D0B85080C85090D850A0E850B0F9002CB
:100893001D7808120141E50C450D450E450F70E228
:1008A3007F0802022874F71201C29001B874EFF0B6
:1008B300A374BEF07AB87B0112041DE964017003CE
:1008C3001204FD9001037401F01208169001C8E0B0
:1008D30060FA1206909001C3E0FE7A01F9120A024F
:1008E300E9F508750900780812031F9001C4E0FCBC
:1008F300A3E0FD7AB77B01120A0B74021201809008
:1009030001C8E4F012068D7A01EEF9120A02E960D9
:10091300BB9001B7E070B5A291D2F0A29130F00183
:10092300B392917AE07B011209E290022112015401
:100933001208787AEC7B011209E290022112015429
:100943001208787ACA7B011209E29002211201543B
:100953001208787AFC7B011209E2900221120154F9
:100963001208787A147B021209E2900221120154D0
:100973001208787A197B021209E2900225120154B7
:10098300120878A290D2F0A29030F001B3929002B4
:1009930008CF9001BA7407F0A37420F0A37419F080
:1009A300A37401F012051A53BEFB75C610741065CB
:1009B3009E70FA75BE0475F10075F33C53FF3F4317
:1009C300868043C50A43C2D8C2E91207D8E9640145
:1009D30070031204FDD291C2901208A80204FDC054
:1009E30082C083800EE0F5C1A3AA82AB83A2E95043
:1009F300FCC2E98A828B83E0640A70E9020811E988
:100A0300C39A500122EAF92274F71201C2EAF8EB01
:100A1300F974091201B6E0FEA3E0FF80188C828D01
:100A230083E088828983F0A3A882A9838C828D8343
:100A3300A3AC82AD838E088F09E50824FF1EE50968
:0E0A430034FFFFE508450970D47F0202022847
:04000005000000C730
:00000001FF
