:020000040000FA
:030000000200C734
:030033000206B111
:03006B000205F596
:03007B0002065327
:100083000208D800000080FBE49001017831790276
:100093008002F0A3D8FCD9FA7A317B029000D6789B
:1000A3000D79018015E493A3AD82AE838A828B839D
:1000B300F0A3AA82AB838D828E83D8E9D9E7120994
:1000C3000A12008675D0007581BF750B01750C018E
:1000D30002008BFF00000000000000000000007021
:1000E3000422600D18C6C333C608C633C6D5E0F470
:1000F3001822E473250BC582C0E0E50C34FFC583E9
:10010300C0E0E50BC3958224F910AF0885830C8505
:10011300820B800885830C85820BD2AFCEF0A3E5DA
:1001230020F0A37808E608F0A3DEFAEFF0A3E58158
:1001330024FBF8E608F0A3E608F0A30808E608F0B5
:10014300A3E608F0A315811581D0E0FED0E0F815F1
:10015300811581E8C0E0EEC0E022850C83850B8227
:10016300E0A3FEE0A3F5207808E0A3F608DFFAE0B9
:10017300A3FFE0A3C0E0E0A3C0E0E0A3C0E0E0A3EE
:10018300C0E010AF0885820B85830C800885820B45
:1001930085830CD2AFD083D08222C0D0250BC582F9
:1001A300C0E0E50C34FFC583C0E0E50BC3958224B2
:1001B300F310AF0885830C85820B800885830C853B
:1001C300820BD2AFC8F0A3E9F0A3EAF0A3EBF0A34C
:1001D3007908E709F0A3D8FAECF0A3EDF0A3EEF069
:1001E300A3EFF0A3D0E0F0A3D0E0F0A3D0E0F0A31E
:1001F300E520F0A3E5F0F0A322850C83850B82E0D4
:10020300C0E0A3E0F9A3E0FAA3E0FBA37808E0F6DB
:1002130008A3DFFAE0FCA3E0FDA3E0FEA3E0FFA355
:10022300E0C0E0A3E0C0E0A3E0F5D0A3E0F520A3A5
:10023300E0A3F5F010AF0885830C85820B80088559
:10024300830C85820BD2AFD082D083D0E0F8D0E08C
:1002530032C082C0831208B81206FD79017A7D7B11
:100263000112089290017DE0C2E7F06405703D79C8
:10027300057A7E7B01120892A3E0A2E55004D2F036
:100283008002C2F0A2F0E433900239F0900182E0E0
:10029300A2E74003020336900180E0F8900101E0F9
:1002A300686003020336A37401020335E024F5906A
:1002B3000236F090017DE0F97A7E7B01120892A369
:1002C300E0A2E55004D2F08002C2F0A2F0E4339041
:1002D3000239F09001851203D2900232E8F0A3E9CB
:1002E300F09002377487F0A37401F0900236E0F8BF
:1002F3003395E0F9748728F8740139F98882898382
:10030300E090023AF088828983A3E0A2E7501C9030
:100313000231E0F8900180E068601090017EE054C3
:10032300DF6441700690023B7401F0900180E0901D
:100333000231F01207001208C802086874F81200AC
:10034300F78A828B83120847E9640170047901807C
:100353006D120700A882A983900108E8F0A3E9F0D1
:10036300900237E4F0A3F090010304F0A3E4F0A3B8
:10037300F0A3F0A3F075F0051203C7A3A3A3A3E0B2
:10038300A424D490618F1203C61203D2E89061743F
:10039300F0E9A3F09001081206461203D0E8906139
:1003A30072F0E9A3F0E5A8F8C2AF9002287454F004
:1003B300A37402F0E8A2E792AF1206FD79007F0171
:1003C30002015DF0900109E0F583888222A3A3E096
:1003D300F8A3E0F92274F61200F7EAFEEBFF8C08AB
:1003E3008D09890A900103E070031208AA7A67A9AC
:1003F3000A12097AE9F50A906193E0542270F8121F
:1004030008B8740B250A90010AF01204C590010B79
:100413006004746180027441F0A37488F090010158
:10042300E090010D1203C61203D090010EE8F0A371
:10043300E9F0A3EEF0A3EFF09001081206461203D1
:10044300D2900112E8F0A3E9F07A00801F8A82A813
:1004530082E50828F582E43509F583E0C0E07414E9
:1004630028F582E43401F583D0E0F00AEAC3950A63
:1004730040DB740A250AF97A0A7B0112086D120817
:10048300C875E1E9E591A2E150FA7591FD1204C541
:100493006013900102E4F07A4A7B021207F5E070E0
:1004A300047E0180027E00900103E070031208B114
:1004B300EEA2E04006900101E004F0EEF97F0302B2
:1004C300015D90010812064AA3A3A3A3A3E022E5BA
:1004D300C65480F853BEFBE59DA2E550FAE59DA204
:1004E300E240F4007401697007744948F5C6800559
:1004F300E9700288C6E5C6F8E59E6870FB43BE0452
:1005030022E9F8E59EA2E64003790122E87005534B
:10051300C67F8008740168700343C680E5C6F9E5A9
:100523009E6970FB79002279011207C779021207CD
:10053300C779031207C779041207C77A327B0012FF
:10054300082080E37900120504E9601079011204A0
:10055300D27900120504E9600312052A7900120416
:10056300D243FE01C29043FE02C29143FE10C294E5
:1005730043FD02C2811205EB53F5FE53FFFE43F721
:100583000143F34043F10243F48043F44043F42036
:10059300E59E75FB8075F800A2E0E433240F442048
:1005A300F5FC75FA5312074D0206FDC082C083792C
:1005B300001205EBA284501E7800A2845004780038
:1005C300790008E8700109C394F4E99401A2D265A3
:1005D300D03340E6790153F3FD900227E0E0A2E037
:1005E300928143FD0202086853F3EF53FDEF438FFB
:1005F3001022C0E074F112019DC2C5E58960317E0D
:1006030000750801750900EE78081200E2AF08E5ED
:10061300895F60151206381206A6600912063812A1
:1006230006431200F5EFF452890EEEC3940840D14D
:100633007F020201FC12069E74FD28F582740122DA
:1006430039F58312064A22E0F8A3E0F58388822273
:10065300C0E074F112019DC2EBE58A60317E007542
:100663000801750900EE78081200E2AF08E58A5F19
:1006730060151206931206A660091206931206432A
:100683001200F5EFF4528A0EEEC3940840D180A015
:1006930012069E740D28F582740222EE25E0F8E41A
:1006A30033F92239F583E0F8A3E0F9E84922C0E001
:1006B30074F112019DC2E8E58B60317E007508017B
:1006C300750900EE78081200E2AF08E58B5F60154C
:1006D3001206F21206A660091206F212064312006F
:1006E300F5EFF4528B0EEEC3940540D1020633129C
:1006F300069E741D28F582740222D2AF22C2AF2255
:10070300C292C280C2F989F9A2F950FC000000002C
:10071300D29222C292D280C2F989F9A2F950FC0086
:10072300000000D2922274F81200F7E9FEEAFF7487
:10073300B04FF9120703EEC4540F4410F912070324
:10074300740F5EF91207030203C174F81200F75322
:10075300F3FED28043FD0153F4FBD29243FE0453D4
:10076300F37FC28743FD8079AF12070379401207F5
:100773000379A012070379A612070379A4120703CA
:1007830079A212070379C8120703792F1207037995
:10079300F8120703790012070379811207037938E6
:1007A3001207037F007E00EFFAEEF91207297900A2
:1007B3001207160EEEC3948440ED0FEFC394084066
:1007C300E40203C1C082C083E914600B14600D14FA
:1007D300600F14601180196390018014639002808C
:1007E3000F639010800A638002900227E06401F097
:1007F3008073EBC313FBEA13FAEAF8EBF9E824FF7F
:10080300FAE934FFFBE84960130000000000000030
:100813000000000000000000000080DD2274F812D8
:1008230000F7EAFEEBFFEEF8EFF9E824FFFEE93408
:10083300FFFFE84960097AE87B031207F580E77F49
:100843000102015DC082C083906189E04460F09041
:1008530061FA7409F09061B27415F09061AEE4F03E
:100863001208C87900D083D0822274F71200F7757A
:10087300E1EE7591FD7800800CEA28F582E43BF502
:1008830083E0F5D908E8C39940EF7F0202015DC018
:1008930082C083800DE5D98A828B83F0A3AA82ABC1
:1008A3008319E970F080BE75E1EC75E1E32275E12F
:1008B300EF75E1EC22C082C0839061A3E0C2E6F051
:1008C300539AFE80A0C082C0839061A3E0D2E6F079
:1008D300439A018090C0E074F212019DA2AFE43309
:1008E300FEC2AFE5E9A2E650149002281206A96001
:1008F300061203CA1200F5759B0053E9BFEEA2E08E
:1009030092AF7F010201FC90022D7407F0A37420C3
:10091300F0A37419F0A37401F0120547120847E914
:100923006401700312052AD291C29090022B7420A5
:10093300F0A37425F07A2B7B0212033FE964017064
:100943000312052A90022AE4F0900103F01208B181
:100953001205AEE9640170F879017C2A7D027AEF11
:100963007BBE1203D8D2F0A29130F001B392911260
:1009730007001206FD80D9E9C39A500122EAF92241
:04000005000000C730
:00000001FF
