:020000040000FA
:030000000200E318
:0300330002089F21
:03004B000207C7E2
:03006B000207E3A6
:03007B0002084830
:1000830002078F00000080FB120113B90003020076
:10009300CDE4900101780B79028002F0A3D8FCD95A
:1000A300FA90020BAA82AB8390011678B47901808F
:1000B30015E493A3AC82AD838A828B83F0A3AA82D7
:1000C300AB838C828D83D8E9D9E77582537583140A
:1000D30074001200F575828675830074001200F5B2
:1000E30075D0007581BF751001751101759F0002F0
:1000F300008BC09FF59FE473D09F22D083D082C032
:100103009FE493C0E0740193C0E0740293F59F22CF
:100113007901223234323000323433300032343316
:10012300310032353230003235333000323533313D
:100133000032353130003235313100313131300068
:1001430031313131002D2D2D2D00202020434378D6
:100153007878782028202900202020000000000043
:10016300000000000000000000000000000000008C
:100173000000000000005045525F746573743A201C
:1001830000524543453A0020202020005045523A72
:1001930000525353493A2D000A00504552205465EA
:1001A3007374657200FF000000000000000000008F
:1001B30000490000000001000000E80300006400A3
:1001C30000000A0000001200FEF708001200FEE122
:1001D30009001200FE830A001200FEB70A00120093
:1001E300FEE00A001200FE130B001200FE400B009B
:1001F3001200FE630B001200FE7B0B001200FE8B4D
:100203000B001200FEA00B001200FEB50B00120043
:10021300FEC30B001200FEE90B001200FE620C008D
:100223001200FE830C001200FEF10C001200FE3BD4
:100233000D001200FE660D001200FE9C0D00120060
:10024300FEAD0E001200FEE10E001200FE041500CA
:100253001200FE4C15001200FE8215001200FE9DD6
:100263001400E066701008A3E066700A08A3E06655
:10027300700408A3E06622C3E09608A3E09608A3EF
:10028300E09608A3E096A2D265D03322C3E0960895
:10029300A3E09608A3E09608A3E09622080808EADC
:1002A300C0E0EBC0E086F0E7A4FA180986F0E7A403
:1002B3002AFA180986F0E7A42AFA180986F0E7A4AF
:1002C3002AFA1986F0E7A4FBE5F02AFA190886F062
:1002D300E7A42BFBE5F03AFA190886F0E7A42BFB19
:1002E300E5F03AFA18180986F0E7A4C5F02BFBE409
:1002F3003AFA1908E7C5F0C6A426F6E5F03BFBE495
:100303003AFA1886F0E7A4F6E5F00826F6E43B0887
:10031300F6E43A08F6D0E0FBD0E0FA22E4CFC0E0FE
:10032300E4CEC0E0E4CDC0E0E4CCC0E075F020C38F
:10033300E633F608E633F608E633F608E633F6184E
:100343001818EC33FCED33FDEE33FEEF33FFC3EC53
:100353009709ED9709EE9709EF97191919400FFFC0
:10036300EC97FC09ED97FD09EE97FE191906D5F0F8
:10037300BEECF709EDF709EEF709EFF7191919D0F4
:10038300E0FCD0E0FDD0E0FED0E0FF221203F7183E
:10039300181812031F1203E6191919221203E6197A
:1003A3001919080808E618181820E7E012031F12A5
:1003B30003F718181822090909E719191920E7DCA6
:1003C300080808E618181820E70302031F1203F7AA
:1003D30018181812031F1203F71818181203E61936
:1003E300191922E4C397F709E497F709E497F70982
:1003F300E497F722E4C396F608E496F608E496F643
:1004030008E496F622E026F608A3E036F608A3E011
:1004130036F608A3E036F622E026F008A3E036F02D
:1004230008A3E036F008A3E036F022C3E0C696F650
:1004330008A3E0C696F608A3E0C696F608A3E0C6AE
:1004430096F622E0F608A3E0F608A3E0F608A3E098
:10045300F622E6F008A3E6F008A3E6F008A3E6F028
:1004630022CAC0E0E6F0A308DAFAD0E0FA22CAC052
:10047300E0E0A3C582CCC582C583CDC583F0A3C507
:1004830082CCC582C583CDC583DAE6D0E0CA22C358
:10049300E498F8E499F91204D38026C3E49AFAE4C1
:1004A3009BFBE920E7E91204D3E498F8E499F922E5
:1004B300C3E498F8E499F91204D3E498F8E499F9B9
:1004C300C3E49AFAE49BFB22EB20E7CFE920E7E0C1
:1004D300B90010BB0008E88AF084F8AAF022E4FB14
:1004E300C8FA22EB70227B10C833C8C933C9335012
:1004F30007C39AC3DBF280069A50012ADBEAC833AA
:10050300F4C8C933F4C9FA2275F008E4C833C8C97A
:1005130033C933C99AC99B5004C92AC93BD5F0ECE6
:10052300FBC833F4C8E4C9FA22700422600D18C66C
:10053300C333C608C633C6D5E0F41822251010AF5E
:1005430008F510400215118008F51040021511D26C
:10055300AF22C0D0251010AF08F51050020511804E
:1005630008F51050020511D2AFD0D0222510F58224
:1005730010AF08F510400215118008F51040021560
:1005830011D2AF851183222510F582E43511F5834D
:1005930022E4732510C582C0E0E51134FFC583C092
:1005A300E0E510C3958224F8F8E4C5A88583118596
:1005B3008210C5A8E8CEF0A3E520F0A37808E608EA
:1005C300F0A3DEFAEFF0A3E58124FAF8E608F0A33E
:1005D300E608F0A3E608F0A30808E608F0A3E60897
:1005E300F0A315811581D0E0FED0E0F815811581C7
:1005F3001581E8C0E0EEC0E022851183851082E01A
:10060300A3FEE0A3F5207808E0A3F608DFFAE0A351
:10061300FFE0A3C0E0E0A3C0E0E0A3C0E0E0A3C02C
:10062300E0E0A3C0E0E4C5A8858210858311C5A8D6
:10063300D083D0820200FBC0D02510C582C0E0E584
:100643001134FFC583C0E0E510C3958224F310AFD6
:10065300088583118582108008858311858210D2D5
:10066300AFC8F0A3E9F0A3EAF0A3EBF0A37908E79E
:1006730009F0A3D8FAECF0A3EDF0A3EEF0A3EFF0AA
:10068300A3D0E0F0A3D0E0F0A3D0E0F0A3E520F006
:10069300A3E5F0F0A322851183851082E0C0E0A3D7
:1006A300E0F9A3E0FAA3E0FBA37808E0F608A3DFF0
:1006B300FAE0FCA3E0FDA3E0FEA3E0FFA3E0C0E0BB
:1006C300A3E0C0E0A3E0F5D0A3E0F520A3E0A3F509
:1006D300F0E4C5A8858311858210C5A8D082D08394
:1006E300D0E0F8D0E03274028000C0E0F4041205D8
:1006F3006FD0E012046422D083D082C5F0E493A3C8
:10070300C5F0C395F0F5F0E493A3C395F04005E578
:10071300F0048001E475F002A42582F582E5F0354A
:1007230083F583E493A3C0E0E493C0E022D083D0B5
:1007330082CCC0E0E493A3600612075A1470FAE473
:1007430093A360061207791470FAD0E0FCE493A334
:10075300C0E0E493C0E022C0E0E493A3D39C501034
:10076300E493A3C39C400AD0E0D0E0D0E002074D5D
:10077300A3A3A3D0E022C0E0E493A36C7009D0E06C
:10078300D0E0D0E002074DA3A3D0E022C0E074F292
:1007930012063AA2AFE492E0FEC2AFE5E9A2E65048
:1007A300199001CAE07002A3E060099001CA12081F
:1007B3003F120594759B0053E9BFEEA2E092AF7F11
:1007C30001020699C0E074F212063A9001CCE0707F
:1007D30002A3E060099001CC12083F12059480DF68
:1007E300C0E074F112063AC2C5E58960487E00751F
:1007F3000801750900EE780812052CAF08E5895F3A
:10080300602CEEC333F8E433F9E824CEF582E934FF
:1008130001F583E07002A3E0600EE824CEF582E9DF
:10082300340112083D120594EFF45589F5890EEE53
:10083300C3940840BA7F02020699F583E0F8A3E067
:10084300F583888222C0E074F112063AC2EBE58A8E
:1008530060487E00750801750900EE780812052CC2
:10086300AF08E58A5F602CEEC333F8E433F9E8247C
:10087300DEF582E93401F583E07002A3E0600EE85F
:1008830024DEF582E9340112083D120594EFF45594
:100893008AF58A0EEEC3940840BA8099C0E074F1D9
:1008A30012063AC2E8E58B60487E007508017509B7
:1008B30000EE780812052CAF08E58B5F602CEEC3C1
:1008C30033F8E433F9E824EEF582E93401F583E003
:1008D3007002A3E0600EE824EEF582E93401120809
:1008E3003D120594EFF4558BF58B0EEEC394054042
:1008F300BA020838C082C0831201F9D2AF79017AF3
:100903004A7B011201F390014AE0C2E7F0640570EB
:100913003779051209D35004D2F08002C2F0A2F055
:10092300E492E09002A5F090014FE0A2E7400302B9
:1009330009CB90014DE0FA900141E06A600302099E
:10094300CB7401900142807FE024F59002A2F090E5
:10095300014AE0F91209D35004D2F08002C2F0A296
:10096300F0E492E09002A5F0900152120A7D900209
:100973009EE8F0A3E9F09002A37454F0A37401F08D
:100983009002A2E0F83395E0F9E82454F8E9340141
:10099300F988828983E09002A6F088828983A3E0A4
:1009A300A2E7501C90029DE0FA90014DE06A6010AE
:1009B30090014BE054DF6441700674019002A7F08C
:1009C30090014DE090029DF0C2AF1201FF020B991E
:1009D3007A4B7B011201F390014BE0A2E52274F400
:1009E300120596EAFEEBFF1201EDE964017004794A
:1009F300018074C2AF900148EEF0A3EFF09002A320
:100A0300E4F0A3F07401900143F09002AA78081275
:100A13000446900144780812045575F005120A6FD4
:100A2300A3A3E0A424D490618FF0900149E0F5835F
:100A33008882120A7DE8906174F0E9906175F01282
:100A43000A6F120A7DE8906172F0E9906173F0E534
:100A5300A8FAC2AF9001CA74C9F0A37401F0EAA264
:100A6300E792AFD2AF79007F040205FC900148E022
:100A7300F8A3E0F5838882A3A322E0F8A3E0F92298
:100A8300748055C6FA53BEFBE59DA2E550FAE59D79
:100A9300A2E240F400740169700774494AF5C68004
:100AA30005E970028AC6E5C6FAE59E6A70FB43BE95
:100AB300040200FBE9FAE59EA2E640047901801AEC
:100AC300EA700553C67F800874016A700343C680C9
:100AD300E5C6FBE59E6B70FB79000200FBEBC313DD
:100AE300FBEA13FAEAF8EBF974FF28FA74FF39FB0F
:100AF3007400687003740069601300000000000054
:100B0300000000000000000000000080D70200FB8E
:100B130074F7120596EAFEEBFFEEF8EFF974FF287F
:100B2300FE74FF39FF740068700374006960097A0A
:100B3300E87B031201E180E17F010205FCC082C072
:100B430083906189E04460F074099061FAF0741550
:100B53009061B2F0E49061AEF01201FF790080364B
:100B6300C082C083800DE5D98A828B83F0A3AA82D9
:100B7300AB8319E970F0801EC082C0839061A3E04B
:100B8300C2E6F0539AFE800EC082C0839061A3E058
:100B9300D2E6F0439A01D083D0820200FBC292C214
:100BA30080C2F989F9A2F950FC00000000D2920238
:100BB30000FBC292D280C2F989F9A2F950FC80E904
:100BC30074F7120596E9FEEAFF74B04FF9120205B5
:100BD300EEC4540F4410F9120205740F5EF91202A9
:100BE300057F010205FC74F712059653F3FED280CC
:100BF30043FD0153F4FBD29243FE0453F37FC287B8
:100C030043FD8079AF120205794012020579A012E3
:100C1300020579A612020579A412020579A212022D
:100C23000579C8120205792F12020579F812020517
:100C33007900120205798112020579381202057FC3
:100C4300007E00EFFAEEF9120211790012020B0E88
:100C5300EEC3948440ED0FEFC3940840E48082C058
:100C630082C08379011202357902120235790312A7
:100C7300023579041202357A327B001201E780E3F0
:100C8300C082C08379001201DBE96010790112018F
:100C9300D579001201DBE9600312021D790012010C
:100CA300D543FE01C29043FE02C29143FE10C2949B
:100CB30043FD02C281120D3153F5FE53FFFE43F78C
:100CC3000143F34043F10243F48043F44043F420EF
:100CD300E59E75FB8075F800A2E0E492E0240F44E2
:100CE30020F5FC75FA53120217D2AF020B99C0829A
:100CF300C0837900120D31A28450227800A284505F
:100D03000478007900E8240108E93400F9C3E89481
:100D1300F4E99401A2D265D03340E2790153F3FDA3
:100D23009001F8E0A2E0928143FD02020B9953F394
:100D3300EF53FDEF438F1022C082C083E91206FAFE
:100D43000103630D4F0D530D570D5B0DD2908010B2
:100D5300D291800CD2948008D28174019001F8F072
:100D6300020B99C082C083E91206FA0103990D7A36
:100D73000D810D860D8D0D639001E59080186390B4
:100D83000280F7639010E590800C638002E5809009
:100D930001F8E06401F0020B9974F412059674D41F
:100DA30012053F8A088B09851082851183AC82ADB9
:100DB30083758302758242740E120471740E1205D8
:100DC3008AAC82AD83758302758250741E120471DE
:100DD30090624AE0120730000A012C0E02FC0D114A
:100DE300320E81200E840E0E85020E89080E912686
:100DF3000EA5140EB51A0E380E7C0B7D02803A7CBC
:100E0300107D0280347C157D02802E7C1A7D028049
:100E1300287C1F7D0280227C247D02801C7C297D0E
:100E23000280167C2E7D0280107C337D02800A7C3A
:100E3300387D0280047C3D7D02750A04750B0078C1
:100E43000A1206E9740712058AAA82AB8312025FAB
:100E53007402120555906249E0C4540F2430C0E077
:100E6300740B12058AD0E0F0AA08AB091202598A62
:100E73000A8B0BAE0AAF0B740E12058AAA82AB83E0
:100E8300120259EA2EF8EB3FF9C3E89411E99400F2
:100E93005010AC08AD09740E12058AAA82AB8312F6
:100EA3000253742C120555020A6A74F712059678D8
:100EB300007900801A8A828B83E0F5C1A3AA82ABF2
:100EC30083A2E950FCC2E9E8240108E93400F9C32C
:100ED300E89CE99DA2D265D03340DA020BE474F0BA
:100EE300120596749B12053F900101C0827425126E
:100EF300058AAC82AD83758301D08274401204717C
:100F0300740112058AE4F09002AA78081204467468
:100F13000A12058A78081204559002AA7808120466
:100F230046741812058A78081204559002AA7808A4
:100F3300120446741412058A7808120455740812B0
:100F4300058AE4F0A3F0740212058AE4F075F10057
:100F530075F30C53FF3FE5FF43868043C50BE5C59F
:100F630043C2D8E5C2C2E99001F974EFF0A374BE9D
:100F7300F07AF97B011201CFE96401700312021DBB
:100F83007401900143F075E1EC75E1E37C0A7D00A7
:100F93007A6E7B02120241021294741012058AC007
:100FA30082C0839002AE7808120446D083D0827840
:100FB30008120408740A12058A780812045590026C
:100FC300AA7808120446741812058A780812045580
:100FD3009002AA7808120446741412058A7808123B
:100FE30004559002AE7808120446741812058A78E4
:100FF3000812041B741812058A7808120446740434
:1010030012058A7808120455740412058AC082C036
:10101300839002B27808120446D083D082780812F3
:10102300027A4034120229E96401702C7402120519
:101033008A7401F09002AE780812044674181205FF
:101043008A78081204559002AA7808120446741488
:1010530012058A7808120455740412058A78081256
:1010630004469002B6780C1204467808790C1203F1
:10107300B9E5082430C0E0741C12058AD0E0F0748E
:101083000412058A780C1204469002B678081204FA
:1010930046780C79081203B99002BA780C12044608
:1010A3007808790C1203B9E5082430C0E0741D12E6
:1010B300058AD0E0F0740412058A780C1204469075
:1010C30002BA7808120446780C79081203B9E508C5
:1010D3002430C0E0741E12058AD0E0F0741F12059C
:1010E3008AE4F07C05FD7A797B021202417C047D5F
:1010F30000741C12058A121440741412058A7808AD
:101103001204469002B2780C1204467808790C1245
:10111300029F741412058AC082C083741812058A50
:10112300780C120446D083D082780C120408780815
:10113300790C12031F740412058A7808120455747B
:101143000412058A78081204469002B6780C120439
:10115300467808790C1203B9E5082430C0E07420FE
:1011630012058AD0E0F0740412058A780C12044642
:101173009002B67808120446780C79081203B990E5
:1011830002BA780C1204467808790C1203B9E50800
:101193002430C0E0742112058AD0E0F074221205D5
:1011A3008A742EF0740412058A780C120446900295
:1011B300BA7808120446780C79081203B9E50824B2
:1011C30030C0E0742312058AD0E0F0742412058A3B
:1011D3007425F07C047D007A847B021202417C0535
:1011E3007D00742012058A121440740812058A12B5
:1011F3000A7D7A207B001204CB8808E9F509339530
:10120300E0F50AF50B78081203F7740412058A78DF
:1012130008120455740412058A78081204469002D1
:10122300BA780C1204467808790C1203B9E508243D
:1012330030C0E0740E12058AD0E0F0740412058AFF
:10124300780C1204469002BA7808120446780C7996
:10125300081203B9E5082430C0E0740F12058AD0E0
:10126300E0F07C067D007A897B021202417C027DDC
:1012730000740E12058AAA82AB831202417C017D9F
:10128300007A907B02120241C2947A2C7B011201F4
:10129300E79002A7E060FAC2AF9002A2E0C0E07458
:1012A3000312058AD0E0F0C394675003E080027410
:1012B30067851082851183F0E0F5087509007808C9
:1012C3001206E99002A3E0FCA3E0FD7AFF7B011282
:1012D300024D74021205559002A6E0F83395E0F929
:1012E3009002A9E0FAE8C39AFEE99400FFE49002B1
:1012F300A7F0D2AF9002A2E0851082851183F0C3DC
:1013030094675003E0608A790312022F9001FF78FB
:1013130008120446741012058A78081204557402E0
:1013230012058AE0601B741012058A7808120446BD
:10133300740A12058A7808120455740212058AE4A5
:10134300F0740112058AE0C333F8E433F97425120B
:10135300058AE58228F8E58339F988828983E0FAEA
:10136300A3E0FB740812058AC3E09AF0A3E09BF0A4
:1013730088828983EEF0A3EFF088828983120A7D45
:10138300740812058AE028F0A3E039F0740112050D
:101393008AE004F064207002E4F0740A12058AC043
:1013A30082C083741012058A7808120446D083D051
:1013B30082780812026570159002AE78081204460E
:1013C300740A12058A780812041B020FE5740A12C4
:1013D300058AC082C083741012058A7808120446F5
:1013E300D083D082780812028F4003020F9D7414B9
:1013F30012058AC082C083741012058A7808120409
:1014030046D083D0827808120408740A12058A78B9
:101413000812042E741412058A78081204557410E5
:1014230012058AC082C0839002AE7808120446D0A7
:1014330083D0827808120408740A020FDDAA82ABF3
:10144300831202417C047D007A7F7B0212024122D7
:10145300E4900209F0740190020AF09001FB740712
:10146300F0A37420F0E49001FEF01202231201EDC8
:10147300E96401700312021D790112022F7A927B33
:101483000212023B7A5E7B011201E7740B9001FDAD
:10149300F012024712021D0200FB74F61205967445
:1014A3000A12058AE0FEA3E0FFEAF8EBF98E088F43
:1014B3000974FF25081E74FF3509FFE5087002E56E
:1014C3000960358C828D83E0A3AC82AD838A828BE5
:1014D30083F0A3AA82AB8370D4EEFCEFFD74FF2CE0
:1014E3001E74FF3DFFEC7001ED600DE48A828B8377
:1014F300F0A3AA82AB8380E1E8FAE9FB7F0202054D
:10150300FC74F6120596740A12058AE0FEA3E0FF46
:10151300EAF8EBF980188C828D83E088828983F066
:10152300A3A882A9838C828D83A3AC82AD838E080A
:101533008F0974FF25081E74FF3509FFE508700243
:10154300E50970D27F020205FC74F7120596EAF8EA
:10155300EBF98005A3AA82AB838A828B83E070F4C4
:101563008C828D83E0A3AC82AD838A828B83F0A3CC
:10157300AA82AB8370EAE8FAE9FB7F010205FCC0AB
:1015830082C0838A828B838001A3E070FCE582C3DF
:0D1593009AFAE5839BFBD083D0820200FB17
:04000005000000E314
:00000001FF
